{
  "abi": [
    {
      "inputs": [],
      "stateMutability": "nonpayable",
      "type": "constructor"
    },
    {
      "anonymous": false,
      "inputs": [
        {
          "indexed": true,
          "internalType": "address",
          "name": "previousOwner",
          "type": "address"
        },
        {
          "indexed": true,
          "internalType": "address",
          "name": "newOwner",
          "type": "address"
        }
      ],
      "name": "OwnershipTransferred",
      "type": "event"
    },
    {
      "anonymous": false,
      "inputs": [
        {
          "indexed": false,
          "internalType": "uint256",
          "name": "",
          "type": "uint256"
        },
        {
          "indexed": false,
          "internalType": "address",
          "name": "",
          "type": "address"
        }
      ],
      "name": "coinTransfer",
      "type": "event"
    },
    {
      "anonymous": false,
      "inputs": [
        {
          "indexed": false,
          "internalType": "uint256",
          "name": "",
          "type": "uint256"
        }
      ],
      "name": "supplyChange",
      "type": "event"
    },
    {
      "inputs": [],
      "name": "coins",
      "outputs": [
        {
          "internalType": "uint256",
          "name": "",
          "type": "uint256"
        }
      ],
      "stateMutability": "view",
      "type": "function"
    },
    {
      "inputs": [
        {
          "internalType": "address",
          "name": "_user",
          "type": "address"
        }
      ],
      "name": "getPaymentsAddress",
      "outputs": [
        {
          "components": [
            {
              "internalType": "uint256",
              "name": "paymentAmount",
              "type": "uint256"
            },
            {
              "internalType": "address",
              "name": "sender",
              "type": "address"
            },
            {
              "internalType": "address",
              "name": "receiver",
              "type": "address"
            }
          ],
          "internalType": "struct VolcanoCoin.Payment[]",
          "name": "",
          "type": "tuple[]"
        }
      ],
      "stateMutability": "view",
      "type": "function"
    },
    {
      "inputs": [
        {
          "internalType": "address",
          "name": "user",
          "type": "address"
        }
      ],
      "name": "getUserBalances",
      "outputs": [
        {
          "internalType": "uint256",
          "name": "",
          "type": "uint256"
        }
      ],
      "stateMutability": "view",
      "type": "function"
    },
    {
      "inputs": [],
      "name": "increaseSupply",
      "outputs": [],
      "stateMutability": "nonpayable",
      "type": "function"
    },
    {
      "inputs": [],
      "name": "owner",
      "outputs": [
        {
          "internalType": "address",
          "name": "",
          "type": "address"
        }
      ],
      "stateMutability": "view",
      "type": "function"
    },
    {
      "inputs": [
        {
          "internalType": "address",
          "name": "_sender",
          "type": "address"
        },
        {
          "internalType": "address",
          "name": "_receiver",
          "type": "address"
        },
        {
          "internalType": "uint256",
          "name": "_paymentAmount",
          "type": "uint256"
        }
      ],
      "name": "recordPayment",
      "outputs": [],
      "stateMutability": "nonpayable",
      "type": "function"
    },
    {
      "inputs": [],
      "name": "renounceOwnership",
      "outputs": [],
      "stateMutability": "nonpayable",
      "type": "function"
    },
    {
      "inputs": [],
      "name": "totalSupply",
      "outputs": [
        {
          "internalType": "uint256",
          "name": "",
          "type": "uint256"
        }
      ],
      "stateMutability": "view",
      "type": "function"
    },
    {
      "inputs": [
        {
          "internalType": "uint256",
          "name": "_amount",
          "type": "uint256"
        },
        {
          "internalType": "address",
          "name": "_recipient",
          "type": "address"
        }
      ],
      "name": "transfer",
      "outputs": [],
      "stateMutability": "nonpayable",
      "type": "function"
    },
    {
      "inputs": [
        {
          "internalType": "address",
          "name": "newOwner",
          "type": "address"
        }
      ],
      "name": "transferOwnership",
      "outputs": [],
      "stateMutability": "nonpayable",
      "type": "function"
    }
  ],
  "bytecode": {
    "object": "0x608060405234801561001057600080fd5b5061001a33610037565b612710600181905533600090815260026020526040902055610087565b600080546001600160a01b038381166001600160a01b0319831681178455604051919092169283917f8be0079c531659141344cd1fd0a4f28419497f9722a3daafe3b4186f6b6457e09190a35050565b61062b806100966000396000f3fe608060405234801561001057600080fd5b506004361061009e5760003560e01c80638da5cb5b116100665780638da5cb5b14610100578063abd3f6121461011b578063b7760c8f14610144578063d196508014610157578063f2fde38b1461015f57600080fd5b806318160ddd146100a357806322fcefbe146100ba5780634e6ebeb8146100c3578063715018a6146100d857806387eaef39146100e0575b600080fd5b6001545b6040519081526020015b60405180910390f35b6100a760015481565b6100d66100d13660046104c3565b610172565b005b6100d66101f2565b6100f36100ee3660046104ff565b610206565b6040516100b19190610521565b6000546040516001600160a01b0390911681526020016100b1565b6100a76101293660046104ff565b6001600160a01b031660009081526002602052604090205490565b6100d6610152366004610587565b6102a3565b6100d661032e565b6100d661016d3660046104ff565b61037f565b33600090815260036020818152604080842081516060810183529586526001600160a01b0397881686840190815296881691860191825280546001818101835591865292909420945191909202909301928355925190820180549185166001600160a01b0319928316179055915160029091018054919093169116179055565b6101fa6103fd565b6102046000610457565b565b6001600160a01b0381166000908152600360209081526040808320805482518185028101850190935280835260609492939192909184015b828210156102985760008481526020908190206040805160608101825260038602909201805483526001808201546001600160a01b039081168587015260029092015490911691830191909152908352909201910161023e565b505050509050919050565b336000908152600260205260409020546102be9083906105c9565b336000908152600260209081526040808320939093556001600160a01b038416808352918390208590558251858152908101919091527fc4fb1b731eb95139277db1a2005709dd14cf456bbb20353d2f538ad0a01beb7b910160405180910390a161032a338284610172565b5050565b6103366103fd565b600154610345906103e86105e2565b60018190556040519081527f85c501526bcf68810e93caed388618079b8396886acf51184c384070e52de7e59060200160405180910390a1565b6103876103fd565b6001600160a01b0381166103f15760405162461bcd60e51b815260206004820152602660248201527f4f776e61626c653a206e6577206f776e657220697320746865207a65726f206160448201526564647265737360d01b60648201526084015b60405180910390fd5b6103fa81610457565b50565b6000546001600160a01b031633146102045760405162461bcd60e51b815260206004820181905260248201527f4f776e61626c653a2063616c6c6572206973206e6f7420746865206f776e657260448201526064016103e8565b600080546001600160a01b038381166001600160a01b0319831681178455604051919092169283917f8be0079c531659141344cd1fd0a4f28419497f9722a3daafe3b4186f6b6457e09190a35050565b80356001600160a01b03811681146104be57600080fd5b919050565b6000806000606084860312156104d857600080fd5b6104e1846104a7565b92506104ef602085016104a7565b9150604084013590509250925092565b60006020828403121561051157600080fd5b61051a826104a7565b9392505050565b602080825282518282018190526000919060409081850190868401855b8281101561057a57815180518552868101516001600160a01b03908116888701529086015116858501526060909301929085019060010161053e565b5091979650505050505050565b6000806040838503121561059a57600080fd5b823591506105aa602084016104a7565b90509250929050565b634e487b7160e01b600052601160045260246000fd5b818103818111156105dc576105dc6105b3565b92915050565b808201808211156105dc576105dc6105b356fea2646970667358221220cc73e81b3f69c5f6ddf104618711189c6c3f0b4a66e69c87d0d2acfdb3c3091864736f6c63430008110033",
    "linkReferences": {}
  },
  "methodIdentifiers": {
    "coins()": "22fcefbe",
    "getPaymentsAddress(address)": "87eaef39",
    "getUserBalances(address)": "abd3f612",
    "increaseSupply()": "d1965080",
    "owner()": "8da5cb5b",
    "recordPayment(address,address,uint256)": "4e6ebeb8",
    "renounceOwnership()": "715018a6",
    "totalSupply()": "18160ddd",
    "transfer(uint256,address)": "b7760c8f",
    "transferOwnership(address)": "f2fde38b"
  },
  "id": 18
}