{
  "abi": [
    {
      "inputs": [
        {
          "internalType": "string",
          "name": "_nftName",
          "type": "string"
        },
        {
          "internalType": "string",
          "name": "_nftSymbol",
          "type": "string"
        }
      ],
      "stateMutability": "nonpayable",
      "type": "constructor"
    },
    {
      "anonymous": false,
      "inputs": [
        {
          "indexed": true,
          "internalType": "address",
          "name": "owner",
          "type": "address"
        },
        {
          "indexed": true,
          "internalType": "address",
          "name": "approved",
          "type": "address"
        },
        {
          "indexed": true,
          "internalType": "uint256",
          "name": "tokenId",
          "type": "uint256"
        }
      ],
      "name": "Approval",
      "type": "event"
    },
    {
      "anonymous": false,
      "inputs": [
        {
          "indexed": true,
          "internalType": "address",
          "name": "owner",
          "type": "address"
        },
        {
          "indexed": true,
          "internalType": "address",
          "name": "operator",
          "type": "address"
        },
        {
          "indexed": false,
          "internalType": "bool",
          "name": "approved",
          "type": "bool"
        }
      ],
      "name": "ApprovalForAll",
      "type": "event"
    },
    {
      "anonymous": false,
      "inputs": [
        {
          "indexed": true,
          "internalType": "address",
          "name": "previousOwner",
          "type": "address"
        },
        {
          "indexed": true,
          "internalType": "address",
          "name": "newOwner",
          "type": "address"
        }
      ],
      "name": "OwnershipTransferred",
      "type": "event"
    },
    {
      "anonymous": false,
      "inputs": [
        {
          "indexed": true,
          "internalType": "address",
          "name": "from",
          "type": "address"
        },
        {
          "indexed": true,
          "internalType": "address",
          "name": "to",
          "type": "address"
        },
        {
          "indexed": true,
          "internalType": "uint256",
          "name": "tokenId",
          "type": "uint256"
        }
      ],
      "name": "Transfer",
      "type": "event"
    },
    {
      "inputs": [],
      "name": "_price",
      "outputs": [
        {
          "internalType": "uint256",
          "name": "",
          "type": "uint256"
        }
      ],
      "stateMutability": "view",
      "type": "function"
    },
    {
      "inputs": [],
      "name": "_tokenId",
      "outputs": [
        {
          "internalType": "uint256",
          "name": "",
          "type": "uint256"
        }
      ],
      "stateMutability": "view",
      "type": "function"
    },
    {
      "inputs": [
        {
          "internalType": "address",
          "name": "to",
          "type": "address"
        },
        {
          "internalType": "uint256",
          "name": "tokenId",
          "type": "uint256"
        }
      ],
      "name": "approve",
      "outputs": [],
      "stateMutability": "nonpayable",
      "type": "function"
    },
    {
      "inputs": [
        {
          "internalType": "address",
          "name": "owner",
          "type": "address"
        }
      ],
      "name": "balanceOf",
      "outputs": [
        {
          "internalType": "uint256",
          "name": "",
          "type": "uint256"
        }
      ],
      "stateMutability": "view",
      "type": "function"
    },
    {
      "inputs": [
        {
          "internalType": "uint256",
          "name": "tokenId",
          "type": "uint256"
        }
      ],
      "name": "getApproved",
      "outputs": [
        {
          "internalType": "address",
          "name": "",
          "type": "address"
        }
      ],
      "stateMutability": "view",
      "type": "function"
    },
    {
      "inputs": [
        {
          "internalType": "address",
          "name": "owner",
          "type": "address"
        },
        {
          "internalType": "address",
          "name": "operator",
          "type": "address"
        }
      ],
      "name": "isApprovedForAll",
      "outputs": [
        {
          "internalType": "bool",
          "name": "",
          "type": "bool"
        }
      ],
      "stateMutability": "view",
      "type": "function"
    },
    {
      "inputs": [
        {
          "internalType": "string",
          "name": "_nft",
          "type": "string"
        }
      ],
      "name": "mint",
      "outputs": [],
      "stateMutability": "payable",
      "type": "function"
    },
    {
      "inputs": [],
      "name": "name",
      "outputs": [
        {
          "internalType": "string",
          "name": "",
          "type": "string"
        }
      ],
      "stateMutability": "view",
      "type": "function"
    },
    {
      "inputs": [
        {
          "internalType": "uint256",
          "name": "",
          "type": "uint256"
        }
      ],
      "name": "nft",
      "outputs": [
        {
          "internalType": "string",
          "name": "",
          "type": "string"
        }
      ],
      "stateMutability": "view",
      "type": "function"
    },
    {
      "inputs": [],
      "name": "owner",
      "outputs": [
        {
          "internalType": "address",
          "name": "",
          "type": "address"
        }
      ],
      "stateMutability": "view",
      "type": "function"
    },
    {
      "inputs": [
        {
          "internalType": "uint256",
          "name": "tokenId",
          "type": "uint256"
        }
      ],
      "name": "ownerOf",
      "outputs": [
        {
          "internalType": "address",
          "name": "",
          "type": "address"
        }
      ],
      "stateMutability": "view",
      "type": "function"
    },
    {
      "inputs": [],
      "name": "renounceOwnership",
      "outputs": [],
      "stateMutability": "nonpayable",
      "type": "function"
    },
    {
      "inputs": [
        {
          "internalType": "address",
          "name": "from",
          "type": "address"
        },
        {
          "internalType": "address",
          "name": "to",
          "type": "address"
        },
        {
          "internalType": "uint256",
          "name": "tokenId",
          "type": "uint256"
        }
      ],
      "name": "safeTransferFrom",
      "outputs": [],
      "stateMutability": "nonpayable",
      "type": "function"
    },
    {
      "inputs": [
        {
          "internalType": "address",
          "name": "from",
          "type": "address"
        },
        {
          "internalType": "address",
          "name": "to",
          "type": "address"
        },
        {
          "internalType": "uint256",
          "name": "tokenId",
          "type": "uint256"
        },
        {
          "internalType": "bytes",
          "name": "data",
          "type": "bytes"
        }
      ],
      "name": "safeTransferFrom",
      "outputs": [],
      "stateMutability": "nonpayable",
      "type": "function"
    },
    {
      "inputs": [
        {
          "internalType": "address",
          "name": "operator",
          "type": "address"
        },
        {
          "internalType": "bool",
          "name": "approved",
          "type": "bool"
        }
      ],
      "name": "setApprovalForAll",
      "outputs": [],
      "stateMutability": "nonpayable",
      "type": "function"
    },
    {
      "inputs": [
        {
          "internalType": "bytes4",
          "name": "interfaceId",
          "type": "bytes4"
        }
      ],
      "name": "supportsInterface",
      "outputs": [
        {
          "internalType": "bool",
          "name": "",
          "type": "bool"
        }
      ],
      "stateMutability": "view",
      "type": "function"
    },
    {
      "inputs": [],
      "name": "symbol",
      "outputs": [
        {
          "internalType": "string",
          "name": "",
          "type": "string"
        }
      ],
      "stateMutability": "view",
      "type": "function"
    },
    {
      "inputs": [
        {
          "internalType": "uint256",
          "name": "tokenId",
          "type": "uint256"
        }
      ],
      "name": "tokenURI",
      "outputs": [
        {
          "internalType": "string",
          "name": "",
          "type": "string"
        }
      ],
      "stateMutability": "view",
      "type": "function"
    },
    {
      "inputs": [
        {
          "internalType": "address",
          "name": "from_",
          "type": "address"
        },
        {
          "internalType": "address",
          "name": "to_",
          "type": "address"
        },
        {
          "internalType": "uint256",
          "name": "tokenId_",
          "type": "uint256"
        }
      ],
      "name": "transfer",
      "outputs": [],
      "stateMutability": "nonpayable",
      "type": "function"
    },
    {
      "inputs": [
        {
          "internalType": "address",
          "name": "from",
          "type": "address"
        },
        {
          "internalType": "address",
          "name": "to",
          "type": "address"
        },
        {
          "internalType": "uint256",
          "name": "tokenId",
          "type": "uint256"
        }
      ],
      "name": "transferFrom",
      "outputs": [],
      "stateMutability": "nonpayable",
      "type": "function"
    },
    {
      "inputs": [
        {
          "internalType": "address",
          "name": "newOwner",
          "type": "address"
        }
      ],
      "name": "transferOwnership",
      "outputs": [],
      "stateMutability": "nonpayable",
      "type": "function"
    },
    {
      "inputs": [
        {
          "internalType": "address payable",
          "name": "_to",
          "type": "address"
        }
      ],
      "name": "withdrawl",
      "outputs": [],
      "stateMutability": "nonpayable",
      "type": "function"
    }
  ],
  "bytecode": {
    "object": "0x60806040523480156200001157600080fd5b5060405162001c9b38038062001c9b8339810160408190526200003491620001a3565b818160006200004483826200029c565b5060016200005382826200029c565b505050620000706200006a6200008860201b60201c565b6200008c565b50506000600755662386f26fc1000060085562000368565b3390565b600680546001600160a01b038381166001600160a01b0319831681179093556040519116919082907f8be0079c531659141344cd1fd0a4f28419497f9722a3daafe3b4186f6b6457e090600090a35050565b634e487b7160e01b600052604160045260246000fd5b600082601f8301126200010657600080fd5b81516001600160401b0380821115620001235762000123620000de565b604051601f8301601f19908116603f011681019082821181831017156200014e576200014e620000de565b816040528381526020925086838588010111156200016b57600080fd5b600091505b838210156200018f578582018301518183018401529082019062000170565b600093810190920192909252949350505050565b60008060408385031215620001b757600080fd5b82516001600160401b0380821115620001cf57600080fd5b620001dd86838701620000f4565b93506020850151915080821115620001f457600080fd5b506200020385828601620000f4565b9150509250929050565b600181811c908216806200022257607f821691505b6020821081036200024357634e487b7160e01b600052602260045260246000fd5b50919050565b601f8211156200029757600081815260208120601f850160051c81016020861015620002725750805b601f850160051c820191505b8181101562000293578281556001016200027e565b5050505b505050565b81516001600160401b03811115620002b857620002b8620000de565b620002d081620002c984546200020d565b8462000249565b602080601f831160018114620003085760008415620002ef5750858301515b600019600386901b1c1916600185901b17855562000293565b600085815260208120601f198616915b82811015620003395788860151825594840194600190910190840162000318565b5085821015620003585787850151600019600388901b60f8161c191681555b5050505050600190811b01905550565b61192380620003786000396000f3fe6080604052600436106101355760003560e01c80638da5cb5b116100ab578063b88d4fde1161006f578063b88d4fde1461034d578063beabacc81461036d578063c87b56dd1461038d578063d85d3d27146103ad578063e985e9c5146103c0578063f2fde38b146103e057600080fd5b80638da5cb5b146102ba5780639169eb32146102d857806395d89b41146102f85780639d0214cb1461030d578063a22cb4651461032d57600080fd5b806323b872dd116100fd57806323b872dd1461020f578063248225141461022f57806342842e0e146102455780636352211e1461026557806370a0823114610285578063715018a6146102a557600080fd5b806301ffc9a71461013a57806306fdde031461016f578063081812fc14610191578063095ea7b3146101c9578063235b6ea1146101eb575b600080fd5b34801561014657600080fd5b5061015a6101553660046112ea565b610400565b60405190151581526020015b60405180910390f35b34801561017b57600080fd5b50610184610452565b6040516101669190611357565b34801561019d57600080fd5b506101b16101ac36600461136a565b6104e4565b6040516001600160a01b039091168152602001610166565b3480156101d557600080fd5b506101e96101e4366004611398565b61050b565b005b3480156101f757600080fd5b5061020160085481565b604051908152602001610166565b34801561021b57600080fd5b506101e961022a3660046113c4565b610625565b34801561023b57600080fd5b5061020160075481565b34801561025157600080fd5b506101e96102603660046113c4565b610656565b34801561027157600080fd5b506101b161028036600461136a565b610671565b34801561029157600080fd5b506102016102a0366004611405565b6106d1565b3480156102b157600080fd5b506101e9610757565b3480156102c657600080fd5b506006546001600160a01b03166101b1565b3480156102e457600080fd5b506101e96102f3366004611405565b61076b565b34801561030457600080fd5b506101846107ac565b34801561031957600080fd5b5061018461032836600461136a565b6107bb565b34801561033957600080fd5b506101e9610348366004611422565b610855565b34801561035957600080fd5b506101e96103683660046114ec565b610860565b34801561037957600080fd5b506101e96103883660046113c4565b61064b565b34801561039957600080fd5b506101846103a836600461136a565b610898565b6101e96103bb36600461156c565b61090c565b3480156103cc57600080fd5b5061015a6103db3660046115b5565b610956565b3480156103ec57600080fd5b506101e96103fb366004611405565b610984565b60006001600160e01b031982166380ac58cd60e01b148061043157506001600160e01b03198216635b5e139f60e01b145b8061044c57506301ffc9a760e01b6001600160e01b03198316145b92915050565b606060008054610461906115e3565b80601f016020809104026020016040519081016040528092919081815260200182805461048d906115e3565b80156104da5780601f106104af576101008083540402835291602001916104da565b820191906000526020600020905b8154815290600101906020018083116104bd57829003601f168201915b5050505050905090565b60006104ef826109fd565b506000908152600460205260409020546001600160a01b031690565b600061051682610671565b9050806001600160a01b0316836001600160a01b0316036105885760405162461bcd60e51b815260206004820152602160248201527f4552433732313a20617070726f76616c20746f2063757272656e74206f776e656044820152603960f91b60648201526084015b60405180910390fd5b336001600160a01b03821614806105a457506105a48133610956565b6106165760405162461bcd60e51b815260206004820152603d60248201527f4552433732313a20617070726f76652063616c6c6572206973206e6f7420746f60448201527f6b656e206f776e6572206f7220617070726f76656420666f7220616c6c000000606482015260840161057f565b6106208383610a5c565b505050565b61062f3382610aca565b61064b5760405162461bcd60e51b815260040161057f9061161d565b610620838383610b29565b61062083838360405180602001604052806000815250610860565b6000818152600260205260408120546001600160a01b03168061044c5760405162461bcd60e51b8152602060048201526018602482015277115490cdcc8c4e881a5b9d985b1a59081d1bdad95b88125160421b604482015260640161057f565b60006001600160a01b03821661073b5760405162461bcd60e51b815260206004820152602960248201527f4552433732313a2061646472657373207a65726f206973206e6f7420612076616044820152683634b21037bbb732b960b91b606482015260840161057f565b506001600160a01b031660009081526003602052604090205490565b61075f610c9a565b6107696000610cf4565b565b610773610c9a565b6040516001600160a01b038216904780156108fc02916000818181858888f193505050501580156107a8573d6000803e3d6000fd5b5050565b606060018054610461906115e3565b600960205260009081526040902080546107d4906115e3565b80601f0160208091040260200160405190810160405280929190818152602001828054610800906115e3565b801561084d5780601f106108225761010080835404028352916020019161084d565b820191906000526020600020905b81548152906001019060200180831161083057829003601f168201915b505050505081565b6107a8338383610d46565b61086a3383610aca565b6108865760405162461bcd60e51b815260040161057f9061161d565b61089284848484610e14565b50505050565b60606108a3826109fd565b60006108ba60408051602081019091526000815290565b905060008151116108da5760405180602001604052806000815250610905565b806108e484610e47565b6040516020016108f592919061166a565b6040516020818303038152906040525b9392505050565b600854341461091a57600080fd5b6007805490600061092a836116af565b919050555061093b33600754610eda565b60075460009081526009602052604090206107a88282611716565b6001600160a01b03918216600090815260056020908152604080832093909416825291909152205460ff1690565b61098c610c9a565b6001600160a01b0381166109f15760405162461bcd60e51b815260206004820152602660248201527f4f776e61626c653a206e6577206f776e657220697320746865207a65726f206160448201526564647265737360d01b606482015260840161057f565b6109fa81610cf4565b50565b6000818152600260205260409020546001600160a01b03166109fa5760405162461bcd60e51b8152602060048201526018602482015277115490cdcc8c4e881a5b9d985b1a59081d1bdad95b88125160421b604482015260640161057f565b600081815260046020526040902080546001600160a01b0319166001600160a01b0384169081179091558190610a9182610671565b6001600160a01b03167f8c5be1e5ebec7d5bd14f71427d1e84f3dd0314c0f7b2291e5b200ac8c7c3b92560405160405180910390a45050565b600080610ad683610671565b9050806001600160a01b0316846001600160a01b03161480610afd5750610afd8185610956565b80610b215750836001600160a01b0316610b16846104e4565b6001600160a01b0316145b949350505050565b826001600160a01b0316610b3c82610671565b6001600160a01b031614610b625760405162461bcd60e51b815260040161057f906117d6565b6001600160a01b038216610bc45760405162461bcd60e51b8152602060048201526024808201527f4552433732313a207472616e7366657220746f20746865207a65726f206164646044820152637265737360e01b606482015260840161057f565b610bd18383836001611073565b826001600160a01b0316610be482610671565b6001600160a01b031614610c0a5760405162461bcd60e51b815260040161057f906117d6565b600081815260046020908152604080832080546001600160a01b03199081169091556001600160a01b0387811680865260038552838620805460001901905590871680865283862080546001019055868652600290945282852080549092168417909155905184937fddf252ad1be2c89b69c2b068fc378daa952ba7f163c4a11628f55a4df523b3ef91a4505050565b6006546001600160a01b031633146107695760405162461bcd60e51b815260206004820181905260248201527f4f776e61626c653a2063616c6c6572206973206e6f7420746865206f776e6572604482015260640161057f565b600680546001600160a01b038381166001600160a01b0319831681179093556040519116919082907f8be0079c531659141344cd1fd0a4f28419497f9722a3daafe3b4186f6b6457e090600090a35050565b816001600160a01b0316836001600160a01b031603610da75760405162461bcd60e51b815260206004820152601960248201527f4552433732313a20617070726f766520746f2063616c6c657200000000000000604482015260640161057f565b6001600160a01b03838116600081815260056020908152604080832094871680845294825291829020805460ff191686151590811790915591519182527f17307eab39ab6107e8899845ad3d59bd9653f200f220920489ca2b5937696c31910160405180910390a3505050565b610e1f848484610b29565b610e2b848484846110fb565b6108925760405162461bcd60e51b815260040161057f9061181b565b60606000610e54836111fc565b600101905060008167ffffffffffffffff811115610e7457610e74611460565b6040519080825280601f01601f191660200182016040528015610e9e576020820181803683370190505b5090508181016020015b600019016f181899199a1a9b1b9c1cb0b131b232b360811b600a86061a8153600a8504945084610ea857509392505050565b6001600160a01b038216610f305760405162461bcd60e51b815260206004820181905260248201527f4552433732313a206d696e7420746f20746865207a65726f2061646472657373604482015260640161057f565b6000818152600260205260409020546001600160a01b031615610f955760405162461bcd60e51b815260206004820152601c60248201527f4552433732313a20746f6b656e20616c7265616479206d696e74656400000000604482015260640161057f565b610fa3600083836001611073565b6000818152600260205260409020546001600160a01b0316156110085760405162461bcd60e51b815260206004820152601c60248201527f4552433732313a20746f6b656e20616c7265616479206d696e74656400000000604482015260640161057f565b6001600160a01b038216600081815260036020908152604080832080546001019055848352600290915280822080546001600160a01b0319168417905551839291907fddf252ad1be2c89b69c2b068fc378daa952ba7f163c4a11628f55a4df523b3ef908290a45050565b6001811115610892576001600160a01b038416156110b9576001600160a01b038416600090815260036020526040812080548392906110b390849061186d565b90915550505b6001600160a01b03831615610892576001600160a01b038316600090815260036020526040812080548392906110f0908490611880565b909155505050505050565b60006001600160a01b0384163b156111f157604051630a85bd0160e11b81526001600160a01b0385169063150b7a029061113f903390899088908890600401611893565b6020604051808303816000875af192505050801561117a575060408051601f3d908101601f19168201909252611177918101906118d0565b60015b6111d7573d8080156111a8576040519150601f19603f3d011682016040523d82523d6000602084013e6111ad565b606091505b5080516000036111cf5760405162461bcd60e51b815260040161057f9061181b565b805181602001fd5b6001600160e01b031916630a85bd0160e11b149050610b21565b506001949350505050565b60008072184f03e93ff9f4daa797ed6e38ed64bf6a1f0160401b831061123b5772184f03e93ff9f4daa797ed6e38ed64bf6a1f0160401b830492506040015b6d04ee2d6d415b85acef81000000008310611267576d04ee2d6d415b85acef8100000000830492506020015b662386f26fc10000831061128557662386f26fc10000830492506010015b6305f5e100831061129d576305f5e100830492506008015b61271083106112b157612710830492506004015b606483106112c3576064830492506002015b600a831061044c5760010192915050565b6001600160e01b0319811681146109fa57600080fd5b6000602082840312156112fc57600080fd5b8135610905816112d4565b60005b8381101561132257818101518382015260200161130a565b50506000910152565b60008151808452611343816020860160208601611307565b601f01601f19169290920160200192915050565b602081526000610905602083018461132b565b60006020828403121561137c57600080fd5b5035919050565b6001600160a01b03811681146109fa57600080fd5b600080604083850312156113ab57600080fd5b82356113b681611383565b946020939093013593505050565b6000806000606084860312156113d957600080fd5b83356113e481611383565b925060208401356113f481611383565b929592945050506040919091013590565b60006020828403121561141757600080fd5b813561090581611383565b6000806040838503121561143557600080fd5b823561144081611383565b91506020830135801515811461145557600080fd5b809150509250929050565b634e487b7160e01b600052604160045260246000fd5b600067ffffffffffffffff8084111561149157611491611460565b604051601f8501601f19908116603f011681019082821181831017156114b9576114b9611460565b816040528093508581528686860111156114d257600080fd5b858560208301376000602087830101525050509392505050565b6000806000806080858703121561150257600080fd5b843561150d81611383565b9350602085013561151d81611383565b925060408501359150606085013567ffffffffffffffff81111561154057600080fd5b8501601f8101871361155157600080fd5b61156087823560208401611476565b91505092959194509250565b60006020828403121561157e57600080fd5b813567ffffffffffffffff81111561159557600080fd5b8201601f810184136115a657600080fd5b610b2184823560208401611476565b600080604083850312156115c857600080fd5b82356115d381611383565b9150602083013561145581611383565b600181811c908216806115f757607f821691505b60208210810361161757634e487b7160e01b600052602260045260246000fd5b50919050565b6020808252602d908201527f4552433732313a2063616c6c6572206973206e6f7420746f6b656e206f776e6560408201526c1c881bdc88185c1c1c9bdd9959609a1b606082015260800190565b6000835161167c818460208801611307565b835190830190611690818360208801611307565b01949350505050565b634e487b7160e01b600052601160045260246000fd5b6000600182016116c1576116c1611699565b5060010190565b601f82111561062057600081815260208120601f850160051c810160208610156116ef5750805b601f850160051c820191505b8181101561170e578281556001016116fb565b505050505050565b815167ffffffffffffffff81111561173057611730611460565b6117448161173e84546115e3565b846116c8565b602080601f83116001811461177957600084156117615750858301515b600019600386901b1c1916600185901b17855561170e565b600085815260208120601f198616915b828110156117a857888601518255948401946001909101908401611789565b50858210156117c65787850151600019600388901b60f8161c191681555b5050505050600190811b01905550565b60208082526025908201527f4552433732313a207472616e736665722066726f6d20696e636f72726563742060408201526437bbb732b960d91b606082015260800190565b60208082526032908201527f4552433732313a207472616e7366657220746f206e6f6e20455243373231526560408201527131b2b4bb32b91034b6b83632b6b2b73a32b960711b606082015260800190565b8181038181111561044c5761044c611699565b8082018082111561044c5761044c611699565b6001600160a01b03858116825284166020820152604081018390526080606082018190526000906118c69083018461132b565b9695505050505050565b6000602082840312156118e257600080fd5b8151610905816112d456fea2646970667358221220463a84fe1daa9671a3b1287e34b10379d01ec09ee661b41d1f5639ad232ba4e464736f6c63430008110033",
    "linkReferences": {}
  },
  "methodIdentifiers": {
    "_price()": "235b6ea1",
    "_tokenId()": "24822514",
    "approve(address,uint256)": "095ea7b3",
    "balanceOf(address)": "70a08231",
    "getApproved(uint256)": "081812fc",
    "isApprovedForAll(address,address)": "e985e9c5",
    "mint(string)": "d85d3d27",
    "name()": "06fdde03",
    "nft(uint256)": "9d0214cb",
    "owner()": "8da5cb5b",
    "ownerOf(uint256)": "6352211e",
    "renounceOwnership()": "715018a6",
    "safeTransferFrom(address,address,uint256)": "42842e0e",
    "safeTransferFrom(address,address,uint256,bytes)": "b88d4fde",
    "setApprovalForAll(address,bool)": "a22cb465",
    "supportsInterface(bytes4)": "01ffc9a7",
    "symbol()": "95d89b41",
    "tokenURI(uint256)": "c87b56dd",
    "transfer(address,address,uint256)": "beabacc8",
    "transferFrom(address,address,uint256)": "23b872dd",
    "transferOwnership(address)": "f2fde38b",
    "withdrawl(address)": "9169eb32"
  },
  "id": 25
}