{
  "abi": [
    {
      "inputs": [
        {
          "internalType": "string",
          "name": "_nftName",
          "type": "string"
        },
        {
          "internalType": "string",
          "name": "_nftSymbol",
          "type": "string"
        },
        {
          "internalType": "address",
          "name": "_volcanoTokenAddress",
          "type": "address"
        }
      ],
      "stateMutability": "nonpayable",
      "type": "constructor"
    },
    {
      "anonymous": false,
      "inputs": [
        {
          "indexed": true,
          "internalType": "address",
          "name": "owner",
          "type": "address"
        },
        {
          "indexed": true,
          "internalType": "address",
          "name": "approved",
          "type": "address"
        },
        {
          "indexed": true,
          "internalType": "uint256",
          "name": "tokenId",
          "type": "uint256"
        }
      ],
      "name": "Approval",
      "type": "event"
    },
    {
      "anonymous": false,
      "inputs": [
        {
          "indexed": true,
          "internalType": "address",
          "name": "owner",
          "type": "address"
        },
        {
          "indexed": true,
          "internalType": "address",
          "name": "operator",
          "type": "address"
        },
        {
          "indexed": false,
          "internalType": "bool",
          "name": "approved",
          "type": "bool"
        }
      ],
      "name": "ApprovalForAll",
      "type": "event"
    },
    {
      "anonymous": false,
      "inputs": [
        {
          "indexed": true,
          "internalType": "address",
          "name": "previousOwner",
          "type": "address"
        },
        {
          "indexed": true,
          "internalType": "address",
          "name": "newOwner",
          "type": "address"
        }
      ],
      "name": "OwnershipTransferred",
      "type": "event"
    },
    {
      "anonymous": false,
      "inputs": [
        {
          "indexed": true,
          "internalType": "address",
          "name": "from",
          "type": "address"
        },
        {
          "indexed": true,
          "internalType": "address",
          "name": "to",
          "type": "address"
        },
        {
          "indexed": true,
          "internalType": "uint256",
          "name": "tokenId",
          "type": "uint256"
        }
      ],
      "name": "Transfer",
      "type": "event"
    },
    {
      "inputs": [],
      "name": "_price",
      "outputs": [
        {
          "internalType": "uint256",
          "name": "",
          "type": "uint256"
        }
      ],
      "stateMutability": "view",
      "type": "function"
    },
    {
      "inputs": [],
      "name": "_tokenId",
      "outputs": [
        {
          "internalType": "uint256",
          "name": "",
          "type": "uint256"
        }
      ],
      "stateMutability": "view",
      "type": "function"
    },
    {
      "inputs": [],
      "name": "_volcanoPrice",
      "outputs": [
        {
          "internalType": "uint256",
          "name": "",
          "type": "uint256"
        }
      ],
      "stateMutability": "view",
      "type": "function"
    },
    {
      "inputs": [
        {
          "internalType": "address",
          "name": "to",
          "type": "address"
        },
        {
          "internalType": "uint256",
          "name": "tokenId",
          "type": "uint256"
        }
      ],
      "name": "approve",
      "outputs": [],
      "stateMutability": "nonpayable",
      "type": "function"
    },
    {
      "inputs": [
        {
          "internalType": "address",
          "name": "owner",
          "type": "address"
        }
      ],
      "name": "balanceOf",
      "outputs": [
        {
          "internalType": "uint256",
          "name": "",
          "type": "uint256"
        }
      ],
      "stateMutability": "view",
      "type": "function"
    },
    {
      "inputs": [
        {
          "internalType": "uint256",
          "name": "tokenId",
          "type": "uint256"
        }
      ],
      "name": "getApproved",
      "outputs": [
        {
          "internalType": "address",
          "name": "",
          "type": "address"
        }
      ],
      "stateMutability": "view",
      "type": "function"
    },
    {
      "inputs": [],
      "name": "getVolcanoContractBalance",
      "outputs": [
        {
          "internalType": "uint256",
          "name": "",
          "type": "uint256"
        }
      ],
      "stateMutability": "view",
      "type": "function"
    },
    {
      "inputs": [],
      "name": "getVolcanoUserBalance",
      "outputs": [
        {
          "internalType": "uint256",
          "name": "",
          "type": "uint256"
        }
      ],
      "stateMutability": "view",
      "type": "function"
    },
    {
      "inputs": [
        {
          "internalType": "address",
          "name": "owner",
          "type": "address"
        },
        {
          "internalType": "address",
          "name": "operator",
          "type": "address"
        }
      ],
      "name": "isApprovedForAll",
      "outputs": [
        {
          "internalType": "bool",
          "name": "",
          "type": "bool"
        }
      ],
      "stateMutability": "view",
      "type": "function"
    },
    {
      "inputs": [
        {
          "internalType": "string",
          "name": "_nft",
          "type": "string"
        }
      ],
      "name": "mint",
      "outputs": [],
      "stateMutability": "payable",
      "type": "function"
    },
    {
      "inputs": [],
      "name": "name",
      "outputs": [
        {
          "internalType": "string",
          "name": "",
          "type": "string"
        }
      ],
      "stateMutability": "view",
      "type": "function"
    },
    {
      "inputs": [
        {
          "internalType": "uint256",
          "name": "",
          "type": "uint256"
        }
      ],
      "name": "nft",
      "outputs": [
        {
          "internalType": "string",
          "name": "",
          "type": "string"
        }
      ],
      "stateMutability": "view",
      "type": "function"
    },
    {
      "inputs": [],
      "name": "owner",
      "outputs": [
        {
          "internalType": "address",
          "name": "",
          "type": "address"
        }
      ],
      "stateMutability": "view",
      "type": "function"
    },
    {
      "inputs": [
        {
          "internalType": "uint256",
          "name": "tokenId",
          "type": "uint256"
        }
      ],
      "name": "ownerOf",
      "outputs": [
        {
          "internalType": "address",
          "name": "",
          "type": "address"
        }
      ],
      "stateMutability": "view",
      "type": "function"
    },
    {
      "inputs": [
        {
          "internalType": "uint256",
          "name": "_volcanoAmount",
          "type": "uint256"
        }
      ],
      "name": "payVolcano",
      "outputs": [],
      "stateMutability": "nonpayable",
      "type": "function"
    },
    {
      "inputs": [],
      "name": "renounceOwnership",
      "outputs": [],
      "stateMutability": "nonpayable",
      "type": "function"
    },
    {
      "inputs": [
        {
          "internalType": "address",
          "name": "from",
          "type": "address"
        },
        {
          "internalType": "address",
          "name": "to",
          "type": "address"
        },
        {
          "internalType": "uint256",
          "name": "tokenId",
          "type": "uint256"
        }
      ],
      "name": "safeTransferFrom",
      "outputs": [],
      "stateMutability": "nonpayable",
      "type": "function"
    },
    {
      "inputs": [
        {
          "internalType": "address",
          "name": "from",
          "type": "address"
        },
        {
          "internalType": "address",
          "name": "to",
          "type": "address"
        },
        {
          "internalType": "uint256",
          "name": "tokenId",
          "type": "uint256"
        },
        {
          "internalType": "bytes",
          "name": "data",
          "type": "bytes"
        }
      ],
      "name": "safeTransferFrom",
      "outputs": [],
      "stateMutability": "nonpayable",
      "type": "function"
    },
    {
      "inputs": [
        {
          "internalType": "address",
          "name": "operator",
          "type": "address"
        },
        {
          "internalType": "bool",
          "name": "approved",
          "type": "bool"
        }
      ],
      "name": "setApprovalForAll",
      "outputs": [],
      "stateMutability": "nonpayable",
      "type": "function"
    },
    {
      "inputs": [
        {
          "internalType": "bytes4",
          "name": "interfaceId",
          "type": "bytes4"
        }
      ],
      "name": "supportsInterface",
      "outputs": [
        {
          "internalType": "bool",
          "name": "",
          "type": "bool"
        }
      ],
      "stateMutability": "view",
      "type": "function"
    },
    {
      "inputs": [],
      "name": "symbol",
      "outputs": [
        {
          "internalType": "string",
          "name": "",
          "type": "string"
        }
      ],
      "stateMutability": "view",
      "type": "function"
    },
    {
      "inputs": [
        {
          "internalType": "uint256",
          "name": "tokenId",
          "type": "uint256"
        }
      ],
      "name": "tokenURI",
      "outputs": [
        {
          "internalType": "string",
          "name": "",
          "type": "string"
        }
      ],
      "stateMutability": "view",
      "type": "function"
    },
    {
      "inputs": [
        {
          "internalType": "address",
          "name": "from_",
          "type": "address"
        },
        {
          "internalType": "address",
          "name": "to_",
          "type": "address"
        },
        {
          "internalType": "uint256",
          "name": "tokenId_",
          "type": "uint256"
        }
      ],
      "name": "transfer",
      "outputs": [],
      "stateMutability": "nonpayable",
      "type": "function"
    },
    {
      "inputs": [
        {
          "internalType": "address",
          "name": "from",
          "type": "address"
        },
        {
          "internalType": "address",
          "name": "to",
          "type": "address"
        },
        {
          "internalType": "uint256",
          "name": "tokenId",
          "type": "uint256"
        }
      ],
      "name": "transferFrom",
      "outputs": [],
      "stateMutability": "nonpayable",
      "type": "function"
    },
    {
      "inputs": [
        {
          "internalType": "address",
          "name": "newOwner",
          "type": "address"
        }
      ],
      "name": "transferOwnership",
      "outputs": [],
      "stateMutability": "nonpayable",
      "type": "function"
    },
    {
      "inputs": [],
      "name": "volcanoAmount_",
      "outputs": [
        {
          "internalType": "uint256",
          "name": "",
          "type": "uint256"
        }
      ],
      "stateMutability": "view",
      "type": "function"
    },
    {
      "inputs": [
        {
          "internalType": "address payable",
          "name": "_to",
          "type": "address"
        }
      ],
      "name": "withdrawal",
      "outputs": [],
      "stateMutability": "nonpayable",
      "type": "function"
    }
  ],
  "bytecode": {
    "object": "0x60806040523480156200001157600080fd5b5060405162001f8a38038062001f8a8339810160408190526200003491620001c8565b82826000620000448382620002e4565b506001620000538282620002e4565b505050620000706200006a620000ad60201b60201c565b620000b1565b600780546001600160a01b0319166001600160a01b039290921691909117905550506000600855662386f26fc100006009556001600a55620003b0565b3390565b600680546001600160a01b038381166001600160a01b0319831681179093556040519116919082907f8be0079c531659141344cd1fd0a4f28419497f9722a3daafe3b4186f6b6457e090600090a35050565b634e487b7160e01b600052604160045260246000fd5b600082601f8301126200012b57600080fd5b81516001600160401b038082111562000148576200014862000103565b604051601f8301601f19908116603f0116810190828211818310171562000173576200017362000103565b816040528381526020925086838588010111156200019057600080fd5b600091505b83821015620001b4578582018301518183018401529082019062000195565b600093810190920192909252949350505050565b600080600060608486031215620001de57600080fd5b83516001600160401b0380821115620001f657600080fd5b620002048783880162000119565b945060208601519150808211156200021b57600080fd5b506200022a8682870162000119565b604086015190935090506001600160a01b03811681146200024a57600080fd5b809150509250925092565b600181811c908216806200026a57607f821691505b6020821081036200028b57634e487b7160e01b600052602260045260246000fd5b50919050565b601f821115620002df57600081815260208120601f850160051c81016020861015620002ba5750805b601f850160051c820191505b81811015620002db57828155600101620002c6565b5050505b505050565b81516001600160401b0381111562000300576200030062000103565b620003188162000311845462000255565b8462000291565b602080601f831160018114620003505760008415620003375750858301515b600019600386901b1c1916600185901b178555620002db565b600085815260208120601f198616915b82811015620003815788860151825594840194600190910190840162000360565b5085821015620003a05787850151600019600388901b60f8161c191681555b5050505050600190811b01905550565b611bca80620003c06000396000f3fe60806040526004361061019c5760003560e01c80638da5cb5b116100ec578063c4f0355e1161008a578063daff728211610064578063daff728214610472578063e832d90114610487578063e985e9c51461049d578063f2fde38b146104bd57600080fd5b8063c4f0355e1461042a578063c87b56dd1461043f578063d85d3d271461045f57600080fd5b80639d0214cb116100c65780639d0214cb146103aa578063a22cb465146103ca578063b88d4fde146103ea578063beabacc81461040a57600080fd5b80638da5cb5b1461035757806395d89b4114610375578063961310491461038a57600080fd5b806323b872dd1161015957806342842e0e1161013357806342842e0e146102e25780636352211e1461030257806370a0823114610322578063715018a61461034257600080fd5b806323b872dd1461029657806324822514146102b6578063383aa14a146102cc57600080fd5b8063016ba148146101a157806301ffc9a7146101c357806306fdde03146101f8578063081812fc1461021a578063095ea7b314610252578063235b6ea114610272575b600080fd5b3480156101ad57600080fd5b506101c16101bc366004611562565b6104dd565b005b3480156101cf57600080fd5b506101e36101de366004611591565b61059a565b60405190151581526020015b60405180910390f35b34801561020457600080fd5b5061020d6105ec565b6040516101ef91906115fe565b34801561022657600080fd5b5061023a610235366004611562565b61067e565b6040516001600160a01b0390911681526020016101ef565b34801561025e57600080fd5b506101c161026d366004611626565b6106a5565b34801561027e57600080fd5b5061028860095481565b6040519081526020016101ef565b3480156102a257600080fd5b506101c16102b1366004611652565b6107ba565b3480156102c257600080fd5b5061028860085481565b3480156102d857600080fd5b50610288600b5481565b3480156102ee57600080fd5b506101c16102fd366004611652565b6107eb565b34801561030e57600080fd5b5061023a61031d366004611562565b610806565b34801561032e57600080fd5b5061028861033d366004611693565b610866565b34801561034e57600080fd5b506101c16108ec565b34801561036357600080fd5b506006546001600160a01b031661023a565b34801561038157600080fd5b5061020d610900565b34801561039657600080fd5b506101c16103a5366004611693565b61090f565b3480156103b657600080fd5b5061020d6103c5366004611562565b610950565b3480156103d657600080fd5b506101c16103e53660046116b0565b6109ea565b3480156103f657600080fd5b506101c161040536600461177a565b6109f5565b34801561041657600080fd5b506101c1610425366004611652565b6107e0565b34801561043657600080fd5b50610288610a2d565b34801561044b57600080fd5b5061020d61045a366004611562565b610aa0565b6101c161046d3660046117fa565b610b14565b34801561047e57600080fd5b50610288610bb3565b34801561049357600080fd5b50610288600a5481565b3480156104a957600080fd5b506101e36104b8366004611843565b610be4565b3480156104c957600080fd5b506101c16104d8366004611693565b610c12565b600b819055600a54811461052d5760405162461bcd60e51b81526020600482015260126024820152714e465420707269636520697320312056434360701b60448201526064015b60405180910390fd5b60075460405163ccb570e360e01b8152600481018390523360248201523060448201526001600160a01b039091169063ccb570e390606401600060405180830381600087803b15801561057f57600080fd5b505af1158015610593573d6000803e3d6000fd5b5050505050565b60006001600160e01b031982166380ac58cd60e01b14806105cb57506001600160e01b03198216635b5e139f60e01b145b806105e657506301ffc9a760e01b6001600160e01b03198316145b92915050565b6060600080546105fb90611871565b80601f016020809104026020016040519081016040528092919081815260200182805461062790611871565b80156106745780601f1061064957610100808354040283529160200191610674565b820191906000526020600020905b81548152906001019060200180831161065757829003601f168201915b5050505050905090565b600061068982610c8b565b506000908152600460205260409020546001600160a01b031690565b60006106b082610806565b9050806001600160a01b0316836001600160a01b03160361071d5760405162461bcd60e51b815260206004820152602160248201527f4552433732313a20617070726f76616c20746f2063757272656e74206f776e656044820152603960f91b6064820152608401610524565b336001600160a01b038216148061073957506107398133610be4565b6107ab5760405162461bcd60e51b815260206004820152603d60248201527f4552433732313a20617070726f76652063616c6c6572206973206e6f7420746f60448201527f6b656e206f776e6572206f7220617070726f76656420666f7220616c6c0000006064820152608401610524565b6107b58383610cea565b505050565b6107c43382610d58565b6107e05760405162461bcd60e51b8152600401610524906118ab565b6107b5838383610db7565b6107b5838383604051806020016040528060008152506109f5565b6000818152600260205260408120546001600160a01b0316806105e65760405162461bcd60e51b8152602060048201526018602482015277115490cdcc8c4e881a5b9d985b1a59081d1bdad95b88125160421b6044820152606401610524565b60006001600160a01b0382166108d05760405162461bcd60e51b815260206004820152602960248201527f4552433732313a2061646472657373207a65726f206973206e6f7420612076616044820152683634b21037bbb732b960b91b6064820152608401610524565b506001600160a01b031660009081526003602052604090205490565b6108f4610f28565b6108fe6000610f82565b565b6060600180546105fb90611871565b610917610f28565b6040516001600160a01b038216904780156108fc02916000818181858888f1935050505015801561094c573d6000803e3d6000fd5b5050565b600c602052600090815260409020805461096990611871565b80601f016020809104026020016040519081016040528092919081815260200182805461099590611871565b80156109e25780601f106109b7576101008083540402835291602001916109e2565b820191906000526020600020905b8154815290600101906020018083116109c557829003601f168201915b505050505081565b61094c338383610fd4565b6109ff3383610d58565b610a1b5760405162461bcd60e51b8152600401610524906118ab565b610a27848484846110a2565b50505050565b6007546040516355e9fb0960e11b81523360048201526000916001600160a01b03169063abd3f612906024015b602060405180830381865afa158015610a77573d6000803e3d6000fd5b505050506040513d601f19601f82011682018060405250810190610a9b91906118f8565b905090565b6060610aab82610c8b565b6000610ac260408051602081019091526000815290565b90506000815111610ae25760405180602001604052806000815250610b0d565b80610aec846110d5565b604051602001610afd929190611911565b6040516020818303038152906040525b9392505050565b600954341015610b7257600a54600b541015610b725760405162461bcd60e51b815260206004820152601e60248201527f4e465420707269636520697320302e303120455448206f7220312056434300006044820152606401610524565b6000600b8190556008805491610b8783611956565b9190505550610b9833600854611168565b6008546000908152600c6020526040902061094c82826119bd565b6007546040516355e9fb0960e11b81523060048201526000916001600160a01b03169063abd3f61290602401610a5a565b6001600160a01b03918216600090815260056020908152604080832093909416825291909152205460ff1690565b610c1a610f28565b6001600160a01b038116610c7f5760405162461bcd60e51b815260206004820152602660248201527f4f776e61626c653a206e6577206f776e657220697320746865207a65726f206160448201526564647265737360d01b6064820152608401610524565b610c8881610f82565b50565b6000818152600260205260409020546001600160a01b0316610c885760405162461bcd60e51b8152602060048201526018602482015277115490cdcc8c4e881a5b9d985b1a59081d1bdad95b88125160421b6044820152606401610524565b600081815260046020526040902080546001600160a01b0319166001600160a01b0384169081179091558190610d1f82610806565b6001600160a01b03167f8c5be1e5ebec7d5bd14f71427d1e84f3dd0314c0f7b2291e5b200ac8c7c3b92560405160405180910390a45050565b600080610d6483610806565b9050806001600160a01b0316846001600160a01b03161480610d8b5750610d8b8185610be4565b80610daf5750836001600160a01b0316610da48461067e565b6001600160a01b0316145b949350505050565b826001600160a01b0316610dca82610806565b6001600160a01b031614610df05760405162461bcd60e51b815260040161052490611a7d565b6001600160a01b038216610e525760405162461bcd60e51b8152602060048201526024808201527f4552433732313a207472616e7366657220746f20746865207a65726f206164646044820152637265737360e01b6064820152608401610524565b610e5f8383836001611301565b826001600160a01b0316610e7282610806565b6001600160a01b031614610e985760405162461bcd60e51b815260040161052490611a7d565b600081815260046020908152604080832080546001600160a01b03199081169091556001600160a01b0387811680865260038552838620805460001901905590871680865283862080546001019055868652600290945282852080549092168417909155905184937fddf252ad1be2c89b69c2b068fc378daa952ba7f163c4a11628f55a4df523b3ef91a4505050565b6006546001600160a01b031633146108fe5760405162461bcd60e51b815260206004820181905260248201527f4f776e61626c653a2063616c6c6572206973206e6f7420746865206f776e65726044820152606401610524565b600680546001600160a01b038381166001600160a01b0319831681179093556040519116919082907f8be0079c531659141344cd1fd0a4f28419497f9722a3daafe3b4186f6b6457e090600090a35050565b816001600160a01b0316836001600160a01b0316036110355760405162461bcd60e51b815260206004820152601960248201527f4552433732313a20617070726f766520746f2063616c6c6572000000000000006044820152606401610524565b6001600160a01b03838116600081815260056020908152604080832094871680845294825291829020805460ff191686151590811790915591519182527f17307eab39ab6107e8899845ad3d59bd9653f200f220920489ca2b5937696c31910160405180910390a3505050565b6110ad848484610db7565b6110b984848484611389565b610a275760405162461bcd60e51b815260040161052490611ac2565b606060006110e28361148a565b600101905060008167ffffffffffffffff811115611102576111026116ee565b6040519080825280601f01601f19166020018201604052801561112c576020820181803683370190505b5090508181016020015b600019016f181899199a1a9b1b9c1cb0b131b232b360811b600a86061a8153600a850494508461113657509392505050565b6001600160a01b0382166111be5760405162461bcd60e51b815260206004820181905260248201527f4552433732313a206d696e7420746f20746865207a65726f20616464726573736044820152606401610524565b6000818152600260205260409020546001600160a01b0316156112235760405162461bcd60e51b815260206004820152601c60248201527f4552433732313a20746f6b656e20616c7265616479206d696e746564000000006044820152606401610524565b611231600083836001611301565b6000818152600260205260409020546001600160a01b0316156112965760405162461bcd60e51b815260206004820152601c60248201527f4552433732313a20746f6b656e20616c7265616479206d696e746564000000006044820152606401610524565b6001600160a01b038216600081815260036020908152604080832080546001019055848352600290915280822080546001600160a01b0319168417905551839291907fddf252ad1be2c89b69c2b068fc378daa952ba7f163c4a11628f55a4df523b3ef908290a45050565b6001811115610a27576001600160a01b03841615611347576001600160a01b03841660009081526003602052604081208054839290611341908490611b14565b90915550505b6001600160a01b03831615610a27576001600160a01b0383166000908152600360205260408120805483929061137e908490611b27565b909155505050505050565b60006001600160a01b0384163b1561147f57604051630a85bd0160e11b81526001600160a01b0385169063150b7a02906113cd903390899088908890600401611b3a565b6020604051808303816000875af1925050508015611408575060408051601f3d908101601f1916820190925261140591810190611b77565b60015b611465573d808015611436576040519150601f19603f3d011682016040523d82523d6000602084013e61143b565b606091505b50805160000361145d5760405162461bcd60e51b815260040161052490611ac2565b805181602001fd5b6001600160e01b031916630a85bd0160e11b149050610daf565b506001949350505050565b60008072184f03e93ff9f4daa797ed6e38ed64bf6a1f0160401b83106114c95772184f03e93ff9f4daa797ed6e38ed64bf6a1f0160401b830492506040015b6d04ee2d6d415b85acef810000000083106114f5576d04ee2d6d415b85acef8100000000830492506020015b662386f26fc10000831061151357662386f26fc10000830492506010015b6305f5e100831061152b576305f5e100830492506008015b612710831061153f57612710830492506004015b60648310611551576064830492506002015b600a83106105e65760010192915050565b60006020828403121561157457600080fd5b5035919050565b6001600160e01b031981168114610c8857600080fd5b6000602082840312156115a357600080fd5b8135610b0d8161157b565b60005b838110156115c95781810151838201526020016115b1565b50506000910152565b600081518084526115ea8160208601602086016115ae565b601f01601f19169290920160200192915050565b602081526000610b0d60208301846115d2565b6001600160a01b0381168114610c8857600080fd5b6000806040838503121561163957600080fd5b823561164481611611565b946020939093013593505050565b60008060006060848603121561166757600080fd5b833561167281611611565b9250602084013561168281611611565b929592945050506040919091013590565b6000602082840312156116a557600080fd5b8135610b0d81611611565b600080604083850312156116c357600080fd5b82356116ce81611611565b9150602083013580151581146116e357600080fd5b809150509250929050565b634e487b7160e01b600052604160045260246000fd5b600067ffffffffffffffff8084111561171f5761171f6116ee565b604051601f8501601f19908116603f01168101908282118183101715611747576117476116ee565b8160405280935085815286868601111561176057600080fd5b858560208301376000602087830101525050509392505050565b6000806000806080858703121561179057600080fd5b843561179b81611611565b935060208501356117ab81611611565b925060408501359150606085013567ffffffffffffffff8111156117ce57600080fd5b8501601f810187136117df57600080fd5b6117ee87823560208401611704565b91505092959194509250565b60006020828403121561180c57600080fd5b813567ffffffffffffffff81111561182357600080fd5b8201601f8101841361183457600080fd5b610daf84823560208401611704565b6000806040838503121561185657600080fd5b823561186181611611565b915060208301356116e381611611565b600181811c9082168061188557607f821691505b6020821081036118a557634e487b7160e01b600052602260045260246000fd5b50919050565b6020808252602d908201527f4552433732313a2063616c6c6572206973206e6f7420746f6b656e206f776e6560408201526c1c881bdc88185c1c1c9bdd9959609a1b606082015260800190565b60006020828403121561190a57600080fd5b5051919050565b600083516119238184602088016115ae565b8351908301906119378183602088016115ae565b01949350505050565b634e487b7160e01b600052601160045260246000fd5b60006001820161196857611968611940565b5060010190565b601f8211156107b557600081815260208120601f850160051c810160208610156119965750805b601f850160051c820191505b818110156119b5578281556001016119a2565b505050505050565b815167ffffffffffffffff8111156119d7576119d76116ee565b6119eb816119e58454611871565b8461196f565b602080601f831160018114611a205760008415611a085750858301515b600019600386901b1c1916600185901b1785556119b5565b600085815260208120601f198616915b82811015611a4f57888601518255948401946001909101908401611a30565b5085821015611a6d5787850151600019600388901b60f8161c191681555b5050505050600190811b01905550565b60208082526025908201527f4552433732313a207472616e736665722066726f6d20696e636f72726563742060408201526437bbb732b960d91b606082015260800190565b60208082526032908201527f4552433732313a207472616e7366657220746f206e6f6e20455243373231526560408201527131b2b4bb32b91034b6b83632b6b2b73a32b960711b606082015260800190565b818103818111156105e6576105e6611940565b808201808211156105e6576105e6611940565b6001600160a01b0385811682528416602082015260408101839052608060608201819052600090611b6d908301846115d2565b9695505050505050565b600060208284031215611b8957600080fd5b8151610b0d8161157b56fea2646970667358221220bf757893a727ffccee679189bc2a55051225f98c7b948825f1dc96744d53cb9d64736f6c63430008110033",
    "linkReferences": {}
  },
  "methodIdentifiers": {
    "_price()": "235b6ea1",
    "_tokenId()": "24822514",
    "_volcanoPrice()": "e832d901",
    "approve(address,uint256)": "095ea7b3",
    "balanceOf(address)": "70a08231",
    "getApproved(uint256)": "081812fc",
    "getVolcanoContractBalance()": "daff7282",
    "getVolcanoUserBalance()": "c4f0355e",
    "isApprovedForAll(address,address)": "e985e9c5",
    "mint(string)": "d85d3d27",
    "name()": "06fdde03",
    "nft(uint256)": "9d0214cb",
    "owner()": "8da5cb5b",
    "ownerOf(uint256)": "6352211e",
    "payVolcano(uint256)": "016ba148",
    "renounceOwnership()": "715018a6",
    "safeTransferFrom(address,address,uint256)": "42842e0e",
    "safeTransferFrom(address,address,uint256,bytes)": "b88d4fde",
    "setApprovalForAll(address,bool)": "a22cb465",
    "supportsInterface(bytes4)": "01ffc9a7",
    "symbol()": "95d89b41",
    "tokenURI(uint256)": "c87b56dd",
    "transfer(address,address,uint256)": "beabacc8",
    "transferFrom(address,address,uint256)": "23b872dd",
    "transferOwnership(address)": "f2fde38b",
    "volcanoAmount_()": "383aa14a",
    "withdrawal(address)": "96131049"
  },
  "id": 26
}