{
  "abi": [
    {
      "inputs": [
        {
          "internalType": "string",
          "name": "_nftName",
          "type": "string"
        },
        {
          "internalType": "string",
          "name": "_nftSymbol",
          "type": "string"
        }
      ],
      "stateMutability": "nonpayable",
      "type": "constructor"
    },
    {
      "anonymous": false,
      "inputs": [
        {
          "indexed": true,
          "internalType": "address",
          "name": "owner",
          "type": "address"
        },
        {
          "indexed": true,
          "internalType": "address",
          "name": "approved",
          "type": "address"
        },
        {
          "indexed": true,
          "internalType": "uint256",
          "name": "tokenId",
          "type": "uint256"
        }
      ],
      "name": "Approval",
      "type": "event"
    },
    {
      "anonymous": false,
      "inputs": [
        {
          "indexed": true,
          "internalType": "address",
          "name": "owner",
          "type": "address"
        },
        {
          "indexed": true,
          "internalType": "address",
          "name": "operator",
          "type": "address"
        },
        {
          "indexed": false,
          "internalType": "bool",
          "name": "approved",
          "type": "bool"
        }
      ],
      "name": "ApprovalForAll",
      "type": "event"
    },
    {
      "anonymous": false,
      "inputs": [
        {
          "indexed": true,
          "internalType": "address",
          "name": "from",
          "type": "address"
        },
        {
          "indexed": true,
          "internalType": "address",
          "name": "to",
          "type": "address"
        },
        {
          "indexed": true,
          "internalType": "uint256",
          "name": "tokenId",
          "type": "uint256"
        }
      ],
      "name": "Transfer",
      "type": "event"
    },
    {
      "inputs": [],
      "name": "_tokenId",
      "outputs": [
        {
          "internalType": "uint256",
          "name": "",
          "type": "uint256"
        }
      ],
      "stateMutability": "view",
      "type": "function"
    },
    {
      "inputs": [
        {
          "internalType": "address",
          "name": "to",
          "type": "address"
        },
        {
          "internalType": "uint256",
          "name": "tokenId",
          "type": "uint256"
        }
      ],
      "name": "approve",
      "outputs": [],
      "stateMutability": "nonpayable",
      "type": "function"
    },
    {
      "inputs": [
        {
          "internalType": "address",
          "name": "owner",
          "type": "address"
        }
      ],
      "name": "balanceOf",
      "outputs": [
        {
          "internalType": "uint256",
          "name": "",
          "type": "uint256"
        }
      ],
      "stateMutability": "view",
      "type": "function"
    },
    {
      "inputs": [
        {
          "internalType": "uint256",
          "name": "tokenId",
          "type": "uint256"
        }
      ],
      "name": "getApproved",
      "outputs": [
        {
          "internalType": "address",
          "name": "",
          "type": "address"
        }
      ],
      "stateMutability": "view",
      "type": "function"
    },
    {
      "inputs": [
        {
          "internalType": "address",
          "name": "owner",
          "type": "address"
        },
        {
          "internalType": "address",
          "name": "operator",
          "type": "address"
        }
      ],
      "name": "isApprovedForAll",
      "outputs": [
        {
          "internalType": "bool",
          "name": "",
          "type": "bool"
        }
      ],
      "stateMutability": "view",
      "type": "function"
    },
    {
      "inputs": [
        {
          "internalType": "string",
          "name": "_nft",
          "type": "string"
        }
      ],
      "name": "mint",
      "outputs": [],
      "stateMutability": "nonpayable",
      "type": "function"
    },
    {
      "inputs": [],
      "name": "name",
      "outputs": [
        {
          "internalType": "string",
          "name": "",
          "type": "string"
        }
      ],
      "stateMutability": "view",
      "type": "function"
    },
    {
      "inputs": [
        {
          "internalType": "uint256",
          "name": "",
          "type": "uint256"
        }
      ],
      "name": "nft",
      "outputs": [
        {
          "internalType": "string",
          "name": "",
          "type": "string"
        }
      ],
      "stateMutability": "view",
      "type": "function"
    },
    {
      "inputs": [
        {
          "internalType": "uint256",
          "name": "tokenId",
          "type": "uint256"
        }
      ],
      "name": "ownerOf",
      "outputs": [
        {
          "internalType": "address",
          "name": "",
          "type": "address"
        }
      ],
      "stateMutability": "view",
      "type": "function"
    },
    {
      "inputs": [
        {
          "internalType": "address",
          "name": "from",
          "type": "address"
        },
        {
          "internalType": "address",
          "name": "to",
          "type": "address"
        },
        {
          "internalType": "uint256",
          "name": "tokenId",
          "type": "uint256"
        }
      ],
      "name": "safeTransferFrom",
      "outputs": [],
      "stateMutability": "nonpayable",
      "type": "function"
    },
    {
      "inputs": [
        {
          "internalType": "address",
          "name": "from",
          "type": "address"
        },
        {
          "internalType": "address",
          "name": "to",
          "type": "address"
        },
        {
          "internalType": "uint256",
          "name": "tokenId",
          "type": "uint256"
        },
        {
          "internalType": "bytes",
          "name": "data",
          "type": "bytes"
        }
      ],
      "name": "safeTransferFrom",
      "outputs": [],
      "stateMutability": "nonpayable",
      "type": "function"
    },
    {
      "inputs": [
        {
          "internalType": "address",
          "name": "operator",
          "type": "address"
        },
        {
          "internalType": "bool",
          "name": "approved",
          "type": "bool"
        }
      ],
      "name": "setApprovalForAll",
      "outputs": [],
      "stateMutability": "nonpayable",
      "type": "function"
    },
    {
      "inputs": [
        {
          "internalType": "bytes4",
          "name": "interfaceId",
          "type": "bytes4"
        }
      ],
      "name": "supportsInterface",
      "outputs": [
        {
          "internalType": "bool",
          "name": "",
          "type": "bool"
        }
      ],
      "stateMutability": "view",
      "type": "function"
    },
    {
      "inputs": [],
      "name": "symbol",
      "outputs": [
        {
          "internalType": "string",
          "name": "",
          "type": "string"
        }
      ],
      "stateMutability": "view",
      "type": "function"
    },
    {
      "inputs": [
        {
          "internalType": "uint256",
          "name": "tokenId",
          "type": "uint256"
        }
      ],
      "name": "tokenURI",
      "outputs": [
        {
          "internalType": "string",
          "name": "",
          "type": "string"
        }
      ],
      "stateMutability": "view",
      "type": "function"
    },
    {
      "inputs": [
        {
          "internalType": "address",
          "name": "from_",
          "type": "address"
        },
        {
          "internalType": "address",
          "name": "to_",
          "type": "address"
        },
        {
          "internalType": "uint256",
          "name": "tokenId_",
          "type": "uint256"
        }
      ],
      "name": "transfer",
      "outputs": [],
      "stateMutability": "nonpayable",
      "type": "function"
    },
    {
      "inputs": [
        {
          "internalType": "address",
          "name": "from",
          "type": "address"
        },
        {
          "internalType": "address",
          "name": "to",
          "type": "address"
        },
        {
          "internalType": "uint256",
          "name": "tokenId",
          "type": "uint256"
        }
      ],
      "name": "transferFrom",
      "outputs": [],
      "stateMutability": "nonpayable",
      "type": "function"
    }
  ],
  "bytecode": {
    "object": "0x60806040523480156200001157600080fd5b506040516200191a3803806200191a833981016040819052620000349162000129565b8181600062000044838262000222565b50600162000053828262000222565b5050600060065550620002ee915050565b634e487b7160e01b600052604160045260246000fd5b600082601f8301126200008c57600080fd5b81516001600160401b0380821115620000a957620000a962000064565b604051601f8301601f19908116603f01168101908282118183101715620000d457620000d462000064565b81604052838152602092508683858801011115620000f157600080fd5b600091505b83821015620001155785820183015181830184015290820190620000f6565b600093810190920192909252949350505050565b600080604083850312156200013d57600080fd5b82516001600160401b03808211156200015557600080fd5b62000163868387016200007a565b935060208501519150808211156200017a57600080fd5b5062000189858286016200007a565b9150509250929050565b600181811c90821680620001a857607f821691505b602082108103620001c957634e487b7160e01b600052602260045260246000fd5b50919050565b601f8211156200021d57600081815260208120601f850160051c81016020861015620001f85750805b601f850160051c820191505b81811015620002195782815560010162000204565b5050505b505050565b81516001600160401b038111156200023e576200023e62000064565b62000256816200024f845462000193565b84620001cf565b602080601f8311600181146200028e5760008415620002755750858301515b600019600386901b1c1916600185901b17855562000219565b600085815260208120601f198616915b82811015620002bf578886015182559484019460019091019084016200029e565b5085821015620002de5787850151600019600388901b60f8161c191681555b5050505050600190811b01905550565b61161c80620002fe6000396000f3fe608060405234801561001057600080fd5b506004361061010b5760003560e01c806370a08231116100a2578063b88d4fde11610071578063b88d4fde1461021e578063beabacc814610231578063c87b56dd14610244578063d85d3d2714610257578063e985e9c51461026a57600080fd5b806370a08231146101dd57806395d89b41146101f05780639d0214cb146101f8578063a22cb4651461020b57600080fd5b806323b872dd116100de57806323b872dd1461018d57806324822514146101a057806342842e0e146101b75780636352211e146101ca57600080fd5b806301ffc9a71461011057806306fdde0314610138578063081812fc1461014d578063095ea7b314610178575b600080fd5b61012361011e366004610fe6565b61027d565b60405190151581526020015b60405180910390f35b6101406102cf565b60405161012f9190611053565b61016061015b366004611066565b610361565b6040516001600160a01b03909116815260200161012f565b61018b61018636600461109b565b610388565b005b61018b61019b3660046110c5565b6104a2565b6101a960065481565b60405190815260200161012f565b61018b6101c53660046110c5565b6104d3565b6101606101d8366004611066565b6104ee565b6101a96101eb366004611101565b61054e565b6101406105d4565b610140610206366004611066565b6105e3565b61018b61021936600461111c565b61067d565b61018b61022c3660046111e4565b61068c565b61018b61023f3660046110c5565b6104c8565b610140610252366004611066565b6106c4565b61018b610265366004611260565b610738565b6101236102783660046112a9565b610774565b60006001600160e01b031982166380ac58cd60e01b14806102ae57506001600160e01b03198216635b5e139f60e01b145b806102c957506301ffc9a760e01b6001600160e01b03198316145b92915050565b6060600080546102de906112dc565b80601f016020809104026020016040519081016040528092919081815260200182805461030a906112dc565b80156103575780601f1061032c57610100808354040283529160200191610357565b820191906000526020600020905b81548152906001019060200180831161033a57829003601f168201915b5050505050905090565b600061036c826107a2565b506000908152600460205260409020546001600160a01b031690565b6000610393826104ee565b9050806001600160a01b0316836001600160a01b0316036104055760405162461bcd60e51b815260206004820152602160248201527f4552433732313a20617070726f76616c20746f2063757272656e74206f776e656044820152603960f91b60648201526084015b60405180910390fd5b336001600160a01b038216148061042157506104218133610774565b6104935760405162461bcd60e51b815260206004820152603d60248201527f4552433732313a20617070726f76652063616c6c6572206973206e6f7420746f60448201527f6b656e206f776e6572206f7220617070726f76656420666f7220616c6c00000060648201526084016103fc565b61049d8383610804565b505050565b6104ac3382610872565b6104c85760405162461bcd60e51b81526004016103fc90611316565b61049d8383836108d1565b61049d8383836040518060200160405280600081525061068c565b6000818152600260205260408120546001600160a01b0316806102c95760405162461bcd60e51b8152602060048201526018602482015277115490cdcc8c4e881a5b9d985b1a59081d1bdad95b88125160421b60448201526064016103fc565b60006001600160a01b0382166105b85760405162461bcd60e51b815260206004820152602960248201527f4552433732313a2061646472657373207a65726f206973206e6f7420612076616044820152683634b21037bbb732b960b91b60648201526084016103fc565b506001600160a01b031660009081526003602052604090205490565b6060600180546102de906112dc565b600760205260009081526040902080546105fc906112dc565b80601f0160208091040260200160405190810160405280929190818152602001828054610628906112dc565b80156106755780601f1061064a57610100808354040283529160200191610675565b820191906000526020600020905b81548152906001019060200180831161065857829003601f168201915b505050505081565b610688338383610a42565b5050565b6106963383610872565b6106b25760405162461bcd60e51b81526004016103fc90611316565b6106be84848484610b10565b50505050565b60606106cf826107a2565b60006106e660408051602081019091526000815290565b905060008151116107065760405180602001604052806000815250610731565b8061071084610b43565b604051602001610721929190611363565b6040516020818303038152906040525b9392505050565b60068054906000610748836113a8565b919050555061075933600654610bd6565b6006546000908152600760205260409020610688828261140f565b6001600160a01b03918216600090815260056020908152604080832093909416825291909152205460ff1690565b6000818152600260205260409020546001600160a01b03166108015760405162461bcd60e51b8152602060048201526018602482015277115490cdcc8c4e881a5b9d985b1a59081d1bdad95b88125160421b60448201526064016103fc565b50565b600081815260046020526040902080546001600160a01b0319166001600160a01b0384169081179091558190610839826104ee565b6001600160a01b03167f8c5be1e5ebec7d5bd14f71427d1e84f3dd0314c0f7b2291e5b200ac8c7c3b92560405160405180910390a45050565b60008061087e836104ee565b9050806001600160a01b0316846001600160a01b031614806108a557506108a58185610774565b806108c95750836001600160a01b03166108be84610361565b6001600160a01b0316145b949350505050565b826001600160a01b03166108e4826104ee565b6001600160a01b03161461090a5760405162461bcd60e51b81526004016103fc906114cf565b6001600160a01b03821661096c5760405162461bcd60e51b8152602060048201526024808201527f4552433732313a207472616e7366657220746f20746865207a65726f206164646044820152637265737360e01b60648201526084016103fc565b6109798383836001610d6f565b826001600160a01b031661098c826104ee565b6001600160a01b0316146109b25760405162461bcd60e51b81526004016103fc906114cf565b600081815260046020908152604080832080546001600160a01b03199081169091556001600160a01b0387811680865260038552838620805460001901905590871680865283862080546001019055868652600290945282852080549092168417909155905184937fddf252ad1be2c89b69c2b068fc378daa952ba7f163c4a11628f55a4df523b3ef91a4505050565b816001600160a01b0316836001600160a01b031603610aa35760405162461bcd60e51b815260206004820152601960248201527f4552433732313a20617070726f766520746f2063616c6c65720000000000000060448201526064016103fc565b6001600160a01b03838116600081815260056020908152604080832094871680845294825291829020805460ff191686151590811790915591519182527f17307eab39ab6107e8899845ad3d59bd9653f200f220920489ca2b5937696c31910160405180910390a3505050565b610b1b8484846108d1565b610b2784848484610df7565b6106be5760405162461bcd60e51b81526004016103fc90611514565b60606000610b5083610ef8565b600101905060008167ffffffffffffffff811115610b7057610b70611158565b6040519080825280601f01601f191660200182016040528015610b9a576020820181803683370190505b5090508181016020015b600019016f181899199a1a9b1b9c1cb0b131b232b360811b600a86061a8153600a8504945084610ba457509392505050565b6001600160a01b038216610c2c5760405162461bcd60e51b815260206004820181905260248201527f4552433732313a206d696e7420746f20746865207a65726f206164647265737360448201526064016103fc565b6000818152600260205260409020546001600160a01b031615610c915760405162461bcd60e51b815260206004820152601c60248201527f4552433732313a20746f6b656e20616c7265616479206d696e7465640000000060448201526064016103fc565b610c9f600083836001610d6f565b6000818152600260205260409020546001600160a01b031615610d045760405162461bcd60e51b815260206004820152601c60248201527f4552433732313a20746f6b656e20616c7265616479206d696e7465640000000060448201526064016103fc565b6001600160a01b038216600081815260036020908152604080832080546001019055848352600290915280822080546001600160a01b0319168417905551839291907fddf252ad1be2c89b69c2b068fc378daa952ba7f163c4a11628f55a4df523b3ef908290a45050565b60018111156106be576001600160a01b03841615610db5576001600160a01b03841660009081526003602052604081208054839290610daf908490611566565b90915550505b6001600160a01b038316156106be576001600160a01b03831660009081526003602052604081208054839290610dec908490611579565b909155505050505050565b60006001600160a01b0384163b15610eed57604051630a85bd0160e11b81526001600160a01b0385169063150b7a0290610e3b90339089908890889060040161158c565b6020604051808303816000875af1925050508015610e76575060408051601f3d908101601f19168201909252610e73918101906115c9565b60015b610ed3573d808015610ea4576040519150601f19603f3d011682016040523d82523d6000602084013e610ea9565b606091505b508051600003610ecb5760405162461bcd60e51b81526004016103fc90611514565b805181602001fd5b6001600160e01b031916630a85bd0160e11b1490506108c9565b506001949350505050565b60008072184f03e93ff9f4daa797ed6e38ed64bf6a1f0160401b8310610f375772184f03e93ff9f4daa797ed6e38ed64bf6a1f0160401b830492506040015b6d04ee2d6d415b85acef81000000008310610f63576d04ee2d6d415b85acef8100000000830492506020015b662386f26fc100008310610f8157662386f26fc10000830492506010015b6305f5e1008310610f99576305f5e100830492506008015b6127108310610fad57612710830492506004015b60648310610fbf576064830492506002015b600a83106102c95760010192915050565b6001600160e01b03198116811461080157600080fd5b600060208284031215610ff857600080fd5b813561073181610fd0565b60005b8381101561101e578181015183820152602001611006565b50506000910152565b6000815180845261103f816020860160208601611003565b601f01601f19169290920160200192915050565b6020815260006107316020830184611027565b60006020828403121561107857600080fd5b5035919050565b80356001600160a01b038116811461109657600080fd5b919050565b600080604083850312156110ae57600080fd5b6110b78361107f565b946020939093013593505050565b6000806000606084860312156110da57600080fd5b6110e38461107f565b92506110f16020850161107f565b9150604084013590509250925092565b60006020828403121561111357600080fd5b6107318261107f565b6000806040838503121561112f57600080fd5b6111388361107f565b91506020830135801515811461114d57600080fd5b809150509250929050565b634e487b7160e01b600052604160045260246000fd5b600067ffffffffffffffff8084111561118957611189611158565b604051601f8501601f19908116603f011681019082821181831017156111b1576111b1611158565b816040528093508581528686860111156111ca57600080fd5b858560208301376000602087830101525050509392505050565b600080600080608085870312156111fa57600080fd5b6112038561107f565b93506112116020860161107f565b925060408501359150606085013567ffffffffffffffff81111561123457600080fd5b8501601f8101871361124557600080fd5b6112548782356020840161116e565b91505092959194509250565b60006020828403121561127257600080fd5b813567ffffffffffffffff81111561128957600080fd5b8201601f8101841361129a57600080fd5b6108c98482356020840161116e565b600080604083850312156112bc57600080fd5b6112c58361107f565b91506112d36020840161107f565b90509250929050565b600181811c908216806112f057607f821691505b60208210810361131057634e487b7160e01b600052602260045260246000fd5b50919050565b6020808252602d908201527f4552433732313a2063616c6c6572206973206e6f7420746f6b656e206f776e6560408201526c1c881bdc88185c1c1c9bdd9959609a1b606082015260800190565b60008351611375818460208801611003565b835190830190611389818360208801611003565b01949350505050565b634e487b7160e01b600052601160045260246000fd5b6000600182016113ba576113ba611392565b5060010190565b601f82111561049d57600081815260208120601f850160051c810160208610156113e85750805b601f850160051c820191505b81811015611407578281556001016113f4565b505050505050565b815167ffffffffffffffff81111561142957611429611158565b61143d8161143784546112dc565b846113c1565b602080601f831160018114611472576000841561145a5750858301515b600019600386901b1c1916600185901b178555611407565b600085815260208120601f198616915b828110156114a157888601518255948401946001909101908401611482565b50858210156114bf5787850151600019600388901b60f8161c191681555b5050505050600190811b01905550565b60208082526025908201527f4552433732313a207472616e736665722066726f6d20696e636f72726563742060408201526437bbb732b960d91b606082015260800190565b60208082526032908201527f4552433732313a207472616e7366657220746f206e6f6e20455243373231526560408201527131b2b4bb32b91034b6b83632b6b2b73a32b960711b606082015260800190565b818103818111156102c9576102c9611392565b808201808211156102c9576102c9611392565b6001600160a01b03858116825284166020820152604081018390526080606082018190526000906115bf90830184611027565b9695505050505050565b6000602082840312156115db57600080fd5b815161073181610fd056fea2646970667358221220c4e57284079fdc4ac985d59ef73e4e4b7df887f5a6066fc1db8cb290cb9d8d4864736f6c63430008110033",
    "linkReferences": {}
  },
  "methodIdentifiers": {
    "_tokenId()": "24822514",
    "approve(address,uint256)": "095ea7b3",
    "balanceOf(address)": "70a08231",
    "getApproved(uint256)": "081812fc",
    "isApprovedForAll(address,address)": "e985e9c5",
    "mint(string)": "d85d3d27",
    "name()": "06fdde03",
    "nft(uint256)": "9d0214cb",
    "ownerOf(uint256)": "6352211e",
    "safeTransferFrom(address,address,uint256)": "42842e0e",
    "safeTransferFrom(address,address,uint256,bytes)": "b88d4fde",
    "setApprovalForAll(address,bool)": "a22cb465",
    "supportsInterface(bytes4)": "01ffc9a7",
    "symbol()": "95d89b41",
    "tokenURI(uint256)": "c87b56dd",
    "transfer(address,address,uint256)": "beabacc8",
    "transferFrom(address,address,uint256)": "23b872dd"
  },
  "id": 24
}